{
  "_format": "hh-sol-artifact-1",
  "contractName": "MyEpicNFT",
  "sourceName": "contracts/MyEpicNFT.sol",
  "abi": [
    {
      "inputs": [],
      "stateMutability": "nonpayable",
      "type": "constructor"
    },
    {
      "anonymous": false,
      "inputs": [
        {
          "indexed": true,
          "internalType": "address",
          "name": "owner",
          "type": "address"
        },
        {
          "indexed": true,
          "internalType": "address",
          "name": "approved",
          "type": "address"
        },
        {
          "indexed": true,
          "internalType": "uint256",
          "name": "tokenId",
          "type": "uint256"
        }
      ],
      "name": "Approval",
      "type": "event"
    },
    {
      "anonymous": false,
      "inputs": [
        {
          "indexed": true,
          "internalType": "address",
          "name": "owner",
          "type": "address"
        },
        {
          "indexed": true,
          "internalType": "address",
          "name": "operator",
          "type": "address"
        },
        {
          "indexed": false,
          "internalType": "bool",
          "name": "approved",
          "type": "bool"
        }
      ],
      "name": "ApprovalForAll",
      "type": "event"
    },
    {
      "anonymous": false,
      "inputs": [
        {
          "indexed": false,
          "internalType": "address",
          "name": "sender",
          "type": "address"
        },
        {
          "indexed": false,
          "internalType": "uint256",
          "name": "tokenId",
          "type": "uint256"
        }
      ],
      "name": "NewEpicNFTMinted",
      "type": "event"
    },
    {
      "anonymous": false,
      "inputs": [
        {
          "indexed": true,
          "internalType": "address",
          "name": "from",
          "type": "address"
        },
        {
          "indexed": true,
          "internalType": "address",
          "name": "to",
          "type": "address"
        },
        {
          "indexed": true,
          "internalType": "uint256",
          "name": "tokenId",
          "type": "uint256"
        }
      ],
      "name": "Transfer",
      "type": "event"
    },
    {
      "inputs": [],
      "name": "NftCollectionMax",
      "outputs": [
        {
          "internalType": "uint256",
          "name": "",
          "type": "uint256"
        }
      ],
      "stateMutability": "view",
      "type": "function"
    },
    {
      "inputs": [
        {
          "internalType": "address",
          "name": "to",
          "type": "address"
        },
        {
          "internalType": "uint256",
          "name": "tokenId",
          "type": "uint256"
        }
      ],
      "name": "approve",
      "outputs": [],
      "stateMutability": "nonpayable",
      "type": "function"
    },
    {
      "inputs": [
        {
          "internalType": "address",
          "name": "owner",
          "type": "address"
        }
      ],
      "name": "balanceOf",
      "outputs": [
        {
          "internalType": "uint256",
          "name": "",
          "type": "uint256"
        }
      ],
      "stateMutability": "view",
      "type": "function"
    },
    {
      "inputs": [
        {
          "internalType": "uint256",
          "name": "tokenId",
          "type": "uint256"
        }
      ],
      "name": "getApproved",
      "outputs": [
        {
          "internalType": "address",
          "name": "",
          "type": "address"
        }
      ],
      "stateMutability": "view",
      "type": "function"
    },
    {
      "inputs": [
        {
          "internalType": "address",
          "name": "owner",
          "type": "address"
        },
        {
          "internalType": "address",
          "name": "operator",
          "type": "address"
        }
      ],
      "name": "isApprovedForAll",
      "outputs": [
        {
          "internalType": "bool",
          "name": "",
          "type": "bool"
        }
      ],
      "stateMutability": "view",
      "type": "function"
    },
    {
      "inputs": [],
      "name": "makeAnEpicNFT",
      "outputs": [],
      "stateMutability": "nonpayable",
      "type": "function"
    },
    {
      "inputs": [],
      "name": "name",
      "outputs": [
        {
          "internalType": "string",
          "name": "",
          "type": "string"
        }
      ],
      "stateMutability": "view",
      "type": "function"
    },
    {
      "inputs": [
        {
          "internalType": "uint256",
          "name": "tokenId",
          "type": "uint256"
        }
      ],
      "name": "ownerOf",
      "outputs": [
        {
          "internalType": "address",
          "name": "",
          "type": "address"
        }
      ],
      "stateMutability": "view",
      "type": "function"
    },
    {
      "inputs": [
        {
          "internalType": "uint256",
          "name": "tokenId",
          "type": "uint256"
        }
      ],
      "name": "pickRandomFirstWord",
      "outputs": [
        {
          "internalType": "string",
          "name": "",
          "type": "string"
        }
      ],
      "stateMutability": "view",
      "type": "function"
    },
    {
      "inputs": [
        {
          "internalType": "uint256",
          "name": "tokenId",
          "type": "uint256"
        }
      ],
      "name": "pickRandomSecondWord",
      "outputs": [
        {
          "internalType": "string",
          "name": "",
          "type": "string"
        }
      ],
      "stateMutability": "view",
      "type": "function"
    },
    {
      "inputs": [
        {
          "internalType": "uint256",
          "name": "tokenId",
          "type": "uint256"
        }
      ],
      "name": "pickRandomThirdWord",
      "outputs": [
        {
          "internalType": "string",
          "name": "",
          "type": "string"
        }
      ],
      "stateMutability": "view",
      "type": "function"
    },
    {
      "inputs": [
        {
          "internalType": "address",
          "name": "from",
          "type": "address"
        },
        {
          "internalType": "address",
          "name": "to",
          "type": "address"
        },
        {
          "internalType": "uint256",
          "name": "tokenId",
          "type": "uint256"
        }
      ],
      "name": "safeTransferFrom",
      "outputs": [],
      "stateMutability": "nonpayable",
      "type": "function"
    },
    {
      "inputs": [
        {
          "internalType": "address",
          "name": "from",
          "type": "address"
        },
        {
          "internalType": "address",
          "name": "to",
          "type": "address"
        },
        {
          "internalType": "uint256",
          "name": "tokenId",
          "type": "uint256"
        },
        {
          "internalType": "bytes",
          "name": "_data",
          "type": "bytes"
        }
      ],
      "name": "safeTransferFrom",
      "outputs": [],
      "stateMutability": "nonpayable",
      "type": "function"
    },
    {
      "inputs": [
        {
          "internalType": "address",
          "name": "operator",
          "type": "address"
        },
        {
          "internalType": "bool",
          "name": "approved",
          "type": "bool"
        }
      ],
      "name": "setApprovalForAll",
      "outputs": [],
      "stateMutability": "nonpayable",
      "type": "function"
    },
    {
      "inputs": [
        {
          "internalType": "bytes4",
          "name": "interfaceId",
          "type": "bytes4"
        }
      ],
      "name": "supportsInterface",
      "outputs": [
        {
          "internalType": "bool",
          "name": "",
          "type": "bool"
        }
      ],
      "stateMutability": "view",
      "type": "function"
    },
    {
      "inputs": [],
      "name": "symbol",
      "outputs": [
        {
          "internalType": "string",
          "name": "",
          "type": "string"
        }
      ],
      "stateMutability": "view",
      "type": "function"
    },
    {
      "inputs": [],
      "name": "tokenCount",
      "outputs": [
        {
          "internalType": "uint256",
          "name": "",
          "type": "uint256"
        }
      ],
      "stateMutability": "view",
      "type": "function"
    },
    {
      "inputs": [
        {
          "internalType": "uint256",
          "name": "tokenId",
          "type": "uint256"
        }
      ],
      "name": "tokenURI",
      "outputs": [
        {
          "internalType": "string",
          "name": "",
          "type": "string"
        }
      ],
      "stateMutability": "view",
      "type": "function"
    },
    {
      "inputs": [
        {
          "internalType": "address",
          "name": "from",
          "type": "address"
        },
        {
          "internalType": "address",
          "name": "to",
          "type": "address"
        },
        {
          "internalType": "uint256",
          "name": "tokenId",
          "type": "uint256"
        }
      ],
      "name": "transferFrom",
      "outputs": [],
      "stateMutability": "nonpayable",
      "type": "function"
    }
  ],
  "bytecode": "0x6080604052600a60075560405180610160016040528061012f81526020016200460e61012f9139600990805190602001906200003d92919062000683565b506040518060c001604052806040518060400160405280600681526020017f736f6c616e61000000000000000000000000000000000000000000000000000081525081526020016040518060400160405280600581526020017f617374617200000000000000000000000000000000000000000000000000000081525081526020016040518060400160405280600781526020017f706f6c79676f6e0000000000000000000000000000000000000000000000000081525081526020016040518060400160405280600781526020017f6861726d6f6e790000000000000000000000000000000000000000000000000081525081526020016040518060400160405280600981526020017f6176616c616e636865000000000000000000000000000000000000000000000081525081526020016040518060400160405280600681526020017f73686964656e0000000000000000000000000000000000000000000000000000815250815250600a906006620001bb92919062000714565b506040518060c001604052806040518060400160405280600481526020017f646566690000000000000000000000000000000000000000000000000000000081525081526020016040518060400160405280600481526020017f7377616f0000000000000000000000000000000000000000000000000000000081525081526020016040518060400160405280600381526020017f6e6674000000000000000000000000000000000000000000000000000000000081525081526020016040518060400160405280600681526020017f67616d656669000000000000000000000000000000000000000000000000000081525081526020016040518060400160405280600581526020017f6e6674666900000000000000000000000000000000000000000000000000000081525081526020016040518060400160405280600981526020017f6d65746176657273650000000000000000000000000000000000000000000000815250815250600b9060066200033992919062000714565b506040518060c001604052806040518060400160405280600381526020017f736f6c000000000000000000000000000000000000000000000000000000000081525081526020016040518060400160405280600481526020017f617374720000000000000000000000000000000000000000000000000000000081525081526020016040518060400160405280600581526020017f6d6174696300000000000000000000000000000000000000000000000000000081525081526020016040518060400160405280600381526020017f6f6e65000000000000000000000000000000000000000000000000000000000081525081526020016040518060400160405280600481526020017f617661780000000000000000000000000000000000000000000000000000000081525081526020016040518060400160405280600381526020017f73646e0000000000000000000000000000000000000000000000000000000000815250815250600c906006620004b792919062000714565b50348015620004c557600080fd5b506040518060400160405280600981526020017f5371756172654e465400000000000000000000000000000000000000000000008152506040518060400160405280600681526020017f535155415245000000000000000000000000000000000000000000000000000081525081600090805190602001906200054a92919062000683565b5080600190805190602001906200056392919062000683565b505050620005b16040518060400160405280601881526020017f54686973206973206d79204e465420636f6e74726163742e0000000000000000815250620005b760201b620012731760201c565b62000935565b6200065781604051602401620005ce919062000849565b6040516020818303038152906040527f41304fac000000000000000000000000000000000000000000000000000000007bffffffffffffffffffffffffffffffffffffffffffffffffffffffff19166020820180517bffffffffffffffffffffffffffffffffffffffffffffffffffffffff83818316178352505050506200065a60201b60201c565b50565b60008151905060006a636f6e736f6c652e6c6f679050602083016000808483855afa5050505050565b8280546200069190620008bf565b90600052602060002090601f016020900481019282620006b5576000855562000701565b82601f10620006d057805160ff191683800117855562000701565b8280016001018555821562000701579182015b8281111562000700578251825591602001919060010190620006e3565b5b5090506200071091906200077b565b5090565b82805482825590600052602060002090810192821562000768579160200282015b82811115620007675782518290805190602001906200075692919062000683565b509160200191906001019062000735565b5b5090506200077791906200079a565b5090565b5b80821115620007965760008160009055506001016200077c565b5090565b5b80821115620007be5760008181620007b49190620007c2565b506001016200079b565b5090565b508054620007d090620008bf565b6000825580601f10620007e4575062000805565b601f0160209004906000526020600020908101906200080491906200077b565b5b50565b600062000815826200086d565b62000821818562000878565b93506200083381856020860162000889565b6200083e8162000924565b840191505092915050565b6000602082019050818103600083015262000865818462000808565b905092915050565b600081519050919050565b600082825260208201905092915050565b60005b83811015620008a95780820151818401526020810190506200088c565b83811115620008b9576000848401525b50505050565b60006002820490506001821680620008d857607f821691505b60208210811415620008ef57620008ee620008f5565b5b50919050565b7f4e487b7100000000000000000000000000000000000000000000000000000000600052602260045260246000fd5b6000601f19601f8301169050919050565b613cc980620009456000396000f3fe608060405234801561001057600080fd5b50600436106101215760003560e01c806370a08231116100ad578063b88d4fde11610071578063b88d4fde1461032e578063c575757a1461034a578063c87b56dd1461037a578063de9d132f146103aa578063e985e9c5146103b457610121565b806370a082311461027657806395d89b41146102a65780639f181b5e146102c4578063a22cb465146102e2578063b187301f146102fe57610121565b8063095ea7b3116100f4578063095ea7b3146101c257806323b872dd146101de5780632de38d68146101fa57806342842e0e1461022a5780636352211e1461024657610121565b806301ffc9a71461012657806302ecbf1d1461015657806306fdde0314610174578063081812fc14610192575b600080fd5b610140600480360381019061013b919061273b565b6103e4565b60405161014d9190612e68565b60405180910390f35b61015e6104c6565b60405161016b9190613133565b60405180910390f35b61017c6104cc565b6040516101899190612e83565b60405180910390f35b6101ac60048036038101906101a7919061278d565b61055e565b6040516101b99190612dd8565b60405180910390f35b6101dc60048036038101906101d791906126ff565b6105e3565b005b6101f860048036038101906101f391906125f9565b6106fb565b005b610214600480360381019061020f919061278d565b61075b565b6040516102219190612e83565b60405180910390f35b610244600480360381019061023f91906125f9565b6108f7565b005b610260600480360381019061025b919061278d565b610917565b60405161026d9190612dd8565b60405180910390f35b610290600480360381019061028b9190612594565b6109c9565b60405161029d9190613133565b60405180910390f35b6102ae610a81565b6040516102bb9190612e83565b60405180910390f35b6102cc610b13565b6040516102d99190613133565b60405180910390f35b6102fc60048036038101906102f791906126c3565b610b29565b005b6103186004803603810190610313919061278d565b610b3f565b6040516103259190612e83565b60405180910390f35b61034860048036038101906103439190612648565b610c5d565b005b610364600480360381019061035f919061278d565b610cbf565b6040516103719190612e83565b60405180910390f35b610394600480360381019061038f919061278d565b610ddd565b6040516103a19190612e83565b60405180910390f35b6103b2610f2f565b005b6103ce60048036038101906103c991906125bd565b6111df565b6040516103db9190612e68565b60405180910390f35b60007f80ac58cd000000000000000000000000000000000000000000000000000000007bffffffffffffffffffffffffffffffffffffffffffffffffffffffff1916827bffffffffffffffffffffffffffffffffffffffffffffffffffffffff191614806104af57507f5b5e139f000000000000000000000000000000000000000000000000000000007bffffffffffffffffffffffffffffffffffffffffffffffffffffffff1916827bffffffffffffffffffffffffffffffffffffffffffffffffffffffff1916145b806104bf57506104be8261130c565b5b9050919050565b60075481565b6060600080546104db906133c7565b80601f0160208091040260200160405190810160405280929190818152602001828054610507906133c7565b80156105545780601f1061052957610100808354040283529160200191610554565b820191906000526020600020905b81548152906001019060200180831161053757829003601f168201915b5050505050905090565b600061056982611376565b6105a8576040517f08c379a000000000000000000000000000000000000000000000000000000000815260040161059f906130b3565b60405180910390fd5b6004600083815260200190815260200160002060009054906101000a900473ffffffffffffffffffffffffffffffffffffffff169050919050565b60006105ee82610917565b90508073ffffffffffffffffffffffffffffffffffffffff168373ffffffffffffffffffffffffffffffffffffffff16141561065f576040517f08c379a0000000000000000000000000000000000000000000000000000000008152600401610656906130f3565b60405180910390fd5b8073ffffffffffffffffffffffffffffffffffffffff1661067e6113e2565b73ffffffffffffffffffffffffffffffffffffffff1614806106ad57506106ac816106a76113e2565b6111df565b5b6106ec576040517f08c379a00000000000000000000000000000000000000000000000000000000081526004016106e390612ff3565b60405180910390fd5b6106f683836113ea565b505050565b61070c6107066113e2565b826114a3565b61074b576040517f08c379a000000000000000000000000000000000000000000000000000000000815260040161074290613113565b60405180910390fd5b610756838383611581565b505050565b6060600061078f61076b846117e8565b60405160200161077b9190612d0b565b604051602081830303815290604052611995565b90506107d06040518060400160405280600b81526020017f72616e642073656565643a000000000000000000000000000000000000000000815250826119c8565b600a80549050816107e19190613473565b90506108226040518060400160405280601181526020017f72616e6420666972737420776f72643a20000000000000000000000000000000815250826119c8565b600a818154811061085c577f4e487b7100000000000000000000000000000000000000000000000000000000600052603260045260246000fd5b906000526020600020018054610871906133c7565b80601f016020809104026020016040519081016040528092919081815260200182805461089d906133c7565b80156108ea5780601f106108bf576101008083540402835291602001916108ea565b820191906000526020600020905b8154815290600101906020018083116108cd57829003601f168201915b5050505050915050919050565b61091283838360405180602001604052806000815250610c5d565b505050565b6000806002600084815260200190815260200160002060009054906101000a900473ffffffffffffffffffffffffffffffffffffffff169050600073ffffffffffffffffffffffffffffffffffffffff168173ffffffffffffffffffffffffffffffffffffffff1614156109c0576040517f08c379a00000000000000000000000000000000000000000000000000000000081526004016109b790613033565b60405180910390fd5b80915050919050565b60008073ffffffffffffffffffffffffffffffffffffffff168273ffffffffffffffffffffffffffffffffffffffff161415610a3a576040517f08c379a0000000000000000000000000000000000000000000000000000000008152600401610a3190613013565b60405180910390fd5b600360008373ffffffffffffffffffffffffffffffffffffffff1673ffffffffffffffffffffffffffffffffffffffff168152602001908152602001600020549050919050565b606060018054610a90906133c7565b80601f0160208091040260200160405190810160405280929190818152602001828054610abc906133c7565b8015610b095780601f10610ade57610100808354040283529160200191610b09565b820191906000526020600020905b815481529060010190602001808311610aec57829003601f168201915b5050505050905090565b600080610b206008611a64565b90508091505090565b610b3b610b346113e2565b8383611a72565b5050565b60606000610b73610b4f846117e8565b604051602001610b5f9190612d4f565b604051602081830303815290604052611995565b9050600b8054905081610b869190613473565b9050600b8181548110610bc2577f4e487b7100000000000000000000000000000000000000000000000000000000600052603260045260246000fd5b906000526020600020018054610bd7906133c7565b80601f0160208091040260200160405190810160405280929190818152602001828054610c03906133c7565b8015610c505780601f10610c2557610100808354040283529160200191610c50565b820191906000526020600020905b815481529060010190602001808311610c3357829003601f168201915b5050505050915050919050565b610c6e610c686113e2565b836114a3565b610cad576040517f08c379a0000000000000000000000000000000000000000000000000000000008152600401610ca490613113565b60405180910390fd5b610cb984848484611bdf565b50505050565b60606000610cf3610ccf846117e8565b604051602001610cdf9190612d2d565b604051602081830303815290604052611995565b9050600c8054905081610d069190613473565b9050600c8181548110610d42577f4e487b7100000000000000000000000000000000000000000000000000000000600052603260045260246000fd5b906000526020600020018054610d57906133c7565b80601f0160208091040260200160405190810160405280929190818152602001828054610d83906133c7565b8015610dd05780601f10610da557610100808354040283529160200191610dd0565b820191906000526020600020905b815481529060010190602001808311610db357829003601f168201915b5050505050915050919050565b6060610de882611376565b610e27576040517f08c379a0000000000000000000000000000000000000000000000000000000008152600401610e1e90613093565b60405180910390fd5b6000600660008481526020019081526020016000208054610e47906133c7565b80601f0160208091040260200160405190810160405280929190818152602001828054610e73906133c7565b8015610ec05780601f10610e9557610100808354040283529160200191610ec0565b820191906000526020600020905b815481529060010190602001808311610ea357829003601f168201915b505050505090506000610ed1611c3b565b9050600081511415610ee7578192505050610f2a565b600082511115610f1c578082604051602001610f04929190612c87565b60405160208183030381529060405292505050610f2a565b610f2584611c52565b925050505b919050565b6000610f3b6008611a64565b90506007548110610f81576040517f08c379a0000000000000000000000000000000000000000000000000000000008152600401610f7890612fd3565b60405180910390fd5b6000610f8c8261075b565b90506000610f9983610b3f565b90506000610fa684610cbf565b90506000838383604051602001610fbf93929190612cab565b60405160208183030381529060405290506000600982604051602001610fe6929190612cdc565b60405160208183030381529060405290506110356040518060400160405280601581526020017f0a2d2d2d2d2d2d2d2d2d2d2d2d2d2d2d2d2d2d2d2d0000000000000000000000815250611273565b61103e81611273565b61107c6040518060400160405280601581526020017f2d2d2d2d2d2d2d2d2d2d2d2d2d2d2d2d2d2d2d2d0a0000000000000000000000815250611273565b60006110b08361108b84611cf9565b60405160200161109c929190612d71565b604051602081830303815290604052611cf9565b90506000816040516020016110c59190612db6565b60405160208183030381529060405290506111146040518060400160405280601581526020017f0a2d2d2d2d2d20546f6b656e20555249202d2d2d2d0000000000000000000000815250611273565b61111d81611273565b61115b6040518060400160405280601581526020017f2d2d2d2d2d2d2d2d2d2d2d2d2d2d2d2d2d2d2d2d0a0000000000000000000000815250611273565b6111653389611eb7565b61116f8882611ed5565b611192604051806060016040528060258152602001613c2f602591398933611f49565b61119c6008611fe8565b7febb98688741ffa4c7589bf325de30cf7becb63de567842e1ccdb6cb949fdc82c33896040516111cd929190612e3f565b60405180910390a15050505050505050565b6000600560008473ffffffffffffffffffffffffffffffffffffffff1673ffffffffffffffffffffffffffffffffffffffff16815260200190815260200160002060008373ffffffffffffffffffffffffffffffffffffffff1673ffffffffffffffffffffffffffffffffffffffff16815260200190815260200160002060009054906101000a900460ff16905092915050565b611309816040516024016112879190612e83565b6040516020818303038152906040527f41304fac000000000000000000000000000000000000000000000000000000007bffffffffffffffffffffffffffffffffffffffffffffffffffffffff19166020820180517bffffffffffffffffffffffffffffffffffffffffffffffffffffffff8381831617835250505050611ffe565b50565b60007f01ffc9a7000000000000000000000000000000000000000000000000000000007bffffffffffffffffffffffffffffffffffffffffffffffffffffffff1916827bffffffffffffffffffffffffffffffffffffffffffffffffffffffff1916149050919050565b60008073ffffffffffffffffffffffffffffffffffffffff166002600084815260200190815260200160002060009054906101000a900473ffffffffffffffffffffffffffffffffffffffff1673ffffffffffffffffffffffffffffffffffffffff1614159050919050565b600033905090565b816004600083815260200190815260200160002060006101000a81548173ffffffffffffffffffffffffffffffffffffffff021916908373ffffffffffffffffffffffffffffffffffffffff160217905550808273ffffffffffffffffffffffffffffffffffffffff1661145d83610917565b73ffffffffffffffffffffffffffffffffffffffff167f8c5be1e5ebec7d5bd14f71427d1e84f3dd0314c0f7b2291e5b200ac8c7c3b92560405160405180910390a45050565b60006114ae82611376565b6114ed576040517f08c379a00000000000000000000000000000000000000000000000000000000081526004016114e490612fb3565b60405180910390fd5b60006114f883610917565b90508073ffffffffffffffffffffffffffffffffffffffff168473ffffffffffffffffffffffffffffffffffffffff16148061156757508373ffffffffffffffffffffffffffffffffffffffff1661154f8461055e565b73ffffffffffffffffffffffffffffffffffffffff16145b80611578575061157781856111df565b5b91505092915050565b8273ffffffffffffffffffffffffffffffffffffffff166115a182610917565b73ffffffffffffffffffffffffffffffffffffffff16146115f7576040517f08c379a00000000000000000000000000000000000000000000000000000000081526004016115ee90612f33565b60405180910390fd5b600073ffffffffffffffffffffffffffffffffffffffff168273ffffffffffffffffffffffffffffffffffffffff161415611667576040517f08c379a000000000000000000000000000000000000000000000000000000000815260040161165e90612f73565b60405180910390fd5b611672838383612027565b61167d6000826113ea565b6001600360008573ffffffffffffffffffffffffffffffffffffffff1673ffffffffffffffffffffffffffffffffffffffff16815260200190815260200160002060008282546116cd91906132dd565b925050819055506001600360008473ffffffffffffffffffffffffffffffffffffffff1673ffffffffffffffffffffffffffffffffffffffff168152602001908152602001600020600082825461172491906131fc565b92505081905550816002600083815260200190815260200160002060006101000a81548173ffffffffffffffffffffffffffffffffffffffff021916908373ffffffffffffffffffffffffffffffffffffffff160217905550808273ffffffffffffffffffffffffffffffffffffffff168473ffffffffffffffffffffffffffffffffffffffff167fddf252ad1be2c89b69c2b068fc378daa952ba7f163c4a11628f55a4df523b3ef60405160405180910390a46117e383838361202c565b505050565b60606000821415611830576040518060400160405280600181526020017f30000000000000000000000000000000000000000000000000000000000000008152509050611990565b600082905060005b6000821461186257808061184b9061342a565b915050600a8261185b9190613252565b9150611838565b60008167ffffffffffffffff8111156118a4577f4e487b7100000000000000000000000000000000000000000000000000000000600052604160045260246000fd5b6040519080825280601f01601f1916602001820160405280156118d65781602001600182028036833780820191505090505b5090505b60008514611989576001826118ef91906132dd565b9150600a856118fe9190613473565b603061190a91906131fc565b60f81b818381518110611946577f4e487b7100000000000000000000000000000000000000000000000000000000600052603260045260246000fd5b60200101907effffffffffffffffffffffffffffffffffffffffffffffffffffffffffffff1916908160001a905350600a856119829190613252565b94506118da565b8093505050505b919050565b6000816040516020016119a89190612c70565b6040516020818303038152906040528051906020012060001c9050919050565b611a6082826040516024016119de929190612ea5565b6040516020818303038152906040527f9710a9d0000000000000000000000000000000000000000000000000000000007bffffffffffffffffffffffffffffffffffffffffffffffffffffffff19166020820180517bffffffffffffffffffffffffffffffffffffffffffffffffffffffff8381831617835250505050611ffe565b5050565b600081600001549050919050565b8173ffffffffffffffffffffffffffffffffffffffff168373ffffffffffffffffffffffffffffffffffffffff161415611ae1576040517f08c379a0000000000000000000000000000000000000000000000000000000008152600401611ad890612f93565b60405180910390fd5b80600560008573ffffffffffffffffffffffffffffffffffffffff1673ffffffffffffffffffffffffffffffffffffffff16815260200190815260200160002060008473ffffffffffffffffffffffffffffffffffffffff1673ffffffffffffffffffffffffffffffffffffffff16815260200190815260200160002060006101000a81548160ff0219169083151502179055508173ffffffffffffffffffffffffffffffffffffffff168373ffffffffffffffffffffffffffffffffffffffff167f17307eab39ab6107e8899845ad3d59bd9653f200f220920489ca2b5937696c3183604051611bd29190612e68565b60405180910390a3505050565b611bea848484611581565b611bf684848484612031565b611c35576040517f08c379a0000000000000000000000000000000000000000000000000000000008152600401611c2c90612f13565b60405180910390fd5b50505050565b606060405180602001604052806000815250905090565b6060611c5d82611376565b611c9c576040517f08c379a0000000000000000000000000000000000000000000000000000000008152600401611c93906130d3565b60405180910390fd5b6000611ca6611c3b565b90506000815111611cc65760405180602001604052806000815250611cf1565b80611cd0846117e8565b604051602001611ce1929190612c87565b6040516020818303038152906040525b915050919050565b60606000825190506000811415611d225760405180602001604052806000815250915050611eb2565b60006003600283611d3391906131fc565b611d3d9190613252565b6004611d499190613283565b90506000602082611d5a91906131fc565b67ffffffffffffffff811115611d99577f4e487b7100000000000000000000000000000000000000000000000000000000600052604160045260246000fd5b6040519080825280601f01601f191660200182016040528015611dcb5781602001600182028036833780820191505090505b5090506000604051806060016040528060408152602001613c54604091399050600181016020830160005b86811015611e6f5760038101905062ffffff818a015116603f8160121c168401518060081b905060ff603f83600c1c1686015116810190508060081b905060ff603f8360061c1686015116810190508060081b905060ff603f831686015116810190508060e01b90508084526004840193505050611df6565b506003860660018114611e895760028114611e9957611ea4565b613d3d60f01b6002830352611ea4565b603d60f81b60018303525b508484525050819450505050505b919050565b611ed18282604051806020016040528060008152506121c8565b5050565b611ede82611376565b611f1d576040517f08c379a0000000000000000000000000000000000000000000000000000000008152600401611f1490613053565b60405180910390fd5b80600660008481526020019081526020016000209080519060200190611f44929190612420565b505050565b611fe3838383604051602401611f6193929190612ed5565b6040516020818303038152906040527fe3849f79000000000000000000000000000000000000000000000000000000007bffffffffffffffffffffffffffffffffffffffffffffffffffffffff19166020820180517bffffffffffffffffffffffffffffffffffffffffffffffffffffffff8381831617835250505050611ffe565b505050565b6001816000016000828254019250508190555050565b60008151905060006a636f6e736f6c652e6c6f679050602083016000808483855afa5050505050565b505050565b505050565b60006120528473ffffffffffffffffffffffffffffffffffffffff16612223565b156121bb578373ffffffffffffffffffffffffffffffffffffffff1663150b7a0261207b6113e2565b8786866040518563ffffffff1660e01b815260040161209d9493929190612df3565b602060405180830381600087803b1580156120b757600080fd5b505af19250505080156120e857506040513d601f19601f820116820180604052508101906120e59190612764565b60015b61216b573d8060008114612118576040519150601f19603f3d011682016040523d82523d6000602084013e61211d565b606091505b50600081511415612163576040517f08c379a000000000000000000000000000000000000000000000000000000000815260040161215a90612f13565b60405180910390fd5b805181602001fd5b63150b7a0260e01b7bffffffffffffffffffffffffffffffffffffffffffffffffffffffff1916817bffffffffffffffffffffffffffffffffffffffffffffffffffffffff1916149150506121c0565b600190505b949350505050565b6121d28383612246565b6121df6000848484612031565b61221e576040517f08c379a000000000000000000000000000000000000000000000000000000000815260040161221590612f13565b60405180910390fd5b505050565b6000808273ffffffffffffffffffffffffffffffffffffffff163b119050919050565b600073ffffffffffffffffffffffffffffffffffffffff168273ffffffffffffffffffffffffffffffffffffffff1614156122b6576040517f08c379a00000000000000000000000000000000000000000000000000000000081526004016122ad90613073565b60405180910390fd5b6122bf81611376565b156122ff576040517f08c379a00000000000000000000000000000000000000000000000000000000081526004016122f690612f53565b60405180910390fd5b61230b60008383612027565b6001600360008473ffffffffffffffffffffffffffffffffffffffff1673ffffffffffffffffffffffffffffffffffffffff168152602001908152602001600020600082825461235b91906131fc565b92505081905550816002600083815260200190815260200160002060006101000a81548173ffffffffffffffffffffffffffffffffffffffff021916908373ffffffffffffffffffffffffffffffffffffffff160217905550808273ffffffffffffffffffffffffffffffffffffffff16600073ffffffffffffffffffffffffffffffffffffffff167fddf252ad1be2c89b69c2b068fc378daa952ba7f163c4a11628f55a4df523b3ef60405160405180910390a461241c6000838361202c565b5050565b82805461242c906133c7565b90600052602060002090601f01602090048101928261244e5760008555612495565b82601f1061246757805160ff1916838001178555612495565b82800160010185558215612495579182015b82811115612494578251825591602001919060010190612479565b5b5090506124a291906124a6565b5090565b5b808211156124bf5760008160009055506001016124a7565b5090565b60006124d66124d184613173565b61314e565b9050828152602081018484840111156124ee57600080fd5b6124f9848285613385565b509392505050565b60008135905061251081613bd2565b92915050565b60008135905061252581613be9565b92915050565b60008135905061253a81613c00565b92915050565b60008151905061254f81613c00565b92915050565b600082601f83011261256657600080fd5b81356125768482602086016124c3565b91505092915050565b60008135905061258e81613c17565b92915050565b6000602082840312156125a657600080fd5b60006125b484828501612501565b91505092915050565b600080604083850312156125d057600080fd5b60006125de85828601612501565b92505060206125ef85828601612501565b9150509250929050565b60008060006060848603121561260e57600080fd5b600061261c86828701612501565b935050602061262d86828701612501565b925050604061263e8682870161257f565b9150509250925092565b6000806000806080858703121561265e57600080fd5b600061266c87828801612501565b945050602061267d87828801612501565b935050604061268e8782880161257f565b925050606085013567ffffffffffffffff8111156126ab57600080fd5b6126b787828801612555565b91505092959194509250565b600080604083850312156126d657600080fd5b60006126e485828601612501565b92505060206126f585828601612516565b9150509250929050565b6000806040838503121561271257600080fd5b600061272085828601612501565b92505060206127318582860161257f565b9150509250929050565b60006020828403121561274d57600080fd5b600061275b8482850161252b565b91505092915050565b60006020828403121561277657600080fd5b600061278484828501612540565b91505092915050565b60006020828403121561279f57600080fd5b60006127ad8482850161257f565b91505092915050565b6127bf81613311565b82525050565b6127ce81613323565b82525050565b60006127df826131b9565b6127e981856131cf565b93506127f9818560208601613394565b61280281613560565b840191505092915050565b6000612818826131c4565b61282281856131e0565b9350612832818560208601613394565b61283b81613560565b840191505092915050565b6000612851826131c4565b61285b81856131f1565b935061286b818560208601613394565b80840191505092915050565b60008154612884816133c7565b61288e81866131f1565b945060018216600081146128a957600181146128ba576128ed565b60ff198316865281860193506128ed565b6128c3856131a4565b60005b838110156128e5578154818901526001820191506020810190506128c6565b838801955050505b50505092915050565b60006129036009836131f1565b915061290e82613571565b600982019050919050565b60006129266032836131e0565b91506129318261359a565b604082019050919050565b60006129496025836131e0565b9150612954826135e9565b604082019050919050565b600061296c601c836131e0565b915061297782613638565b602082019050919050565b600061298f600a836131f1565b915061299a82613661565b600a82019050919050565b60006129b26024836131e0565b91506129bd8261368a565b604082019050919050565b60006129d56019836131e0565b91506129e0826136d9565b602082019050919050565b60006129f8600b836131f1565b9150612a0382613702565b600b82019050919050565b6000612a1b602c836131e0565b9150612a268261372b565b604082019050919050565b6000612a3e600d836131f1565b9150612a498261377a565b600d82019050919050565b6000612a616008836131e0565b9150612a6c826137a3565b602082019050919050565b6000612a846038836131e0565b9150612a8f826137cc565b604082019050919050565b6000612aa7602a836131e0565b9150612ab28261381b565b604082019050919050565b6000612aca6029836131e0565b9150612ad58261386a565b604082019050919050565b6000612aed602e836131e0565b9150612af8826138b9565b604082019050919050565b6000612b10600b836131f1565b9150612b1b82613908565b600b82019050919050565b6000612b336002836131f1565b9150612b3e82613931565b600282019050919050565b6000612b566020836131e0565b9150612b618261395a565b602082019050919050565b6000612b796064836131f1565b9150612b8482613983565b606482019050919050565b6000612b9c6031836131e0565b9150612ba782613a1e565b604082019050919050565b6000612bbf602c836131e0565b9150612bca82613a6d565b604082019050919050565b6000612be2602f836131e0565b9150612bed82613abc565b604082019050919050565b6000612c056021836131e0565b9150612c1082613b0b565b604082019050919050565b6000612c28601d836131f1565b9150612c3382613b5a565b601d82019050919050565b6000612c4b6031836131e0565b9150612c5682613b83565b604082019050919050565b612c6a8161337b565b82525050565b6000612c7c8284612846565b915081905092915050565b6000612c938285612846565b9150612c9f8284612846565b91508190509392505050565b6000612cb78286612846565b9150612cc38285612846565b9150612ccf8284612846565b9150819050949350505050565b6000612ce88285612877565b9150612cf48284612846565b9150612cff82612a31565b91508190509392505050565b6000612d16826128f6565b9150612d228284612846565b915081905092915050565b6000612d3882612982565b9150612d448284612846565b915081905092915050565b6000612d5a826129eb565b9150612d668284612846565b915081905092915050565b6000612d7c82612b03565b9150612d888285612846565b9150612d9382612b6c565b9150612d9f8284612846565b9150612daa82612b26565b91508190509392505050565b6000612dc182612c1b565b9150612dcd8284612846565b915081905092915050565b6000602082019050612ded60008301846127b6565b92915050565b6000608082019050612e0860008301876127b6565b612e1560208301866127b6565b612e226040830185612c61565b8181036060830152612e3481846127d4565b905095945050505050565b6000604082019050612e5460008301856127b6565b612e616020830184612c61565b9392505050565b6000602082019050612e7d60008301846127c5565b92915050565b60006020820190508181036000830152612e9d818461280d565b905092915050565b60006040820190508181036000830152612ebf818561280d565b9050612ece6020830184612c61565b9392505050565b60006060820190508181036000830152612eef818661280d565b9050612efe6020830185612c61565b612f0b60408301846127b6565b949350505050565b60006020820190508181036000830152612f2c81612919565b9050919050565b60006020820190508181036000830152612f4c8161293c565b9050919050565b60006020820190508181036000830152612f6c8161295f565b9050919050565b60006020820190508181036000830152612f8c816129a5565b9050919050565b60006020820190508181036000830152612fac816129c8565b9050919050565b60006020820190508181036000830152612fcc81612a0e565b9050919050565b60006020820190508181036000830152612fec81612a54565b9050919050565b6000602082019050818103600083015261300c81612a77565b9050919050565b6000602082019050818103600083015261302c81612a9a565b9050919050565b6000602082019050818103600083015261304c81612abd565b9050919050565b6000602082019050818103600083015261306c81612ae0565b9050919050565b6000602082019050818103600083015261308c81612b49565b9050919050565b600060208201905081810360008301526130ac81612b8f565b9050919050565b600060208201905081810360008301526130cc81612bb2565b9050919050565b600060208201905081810360008301526130ec81612bd5565b9050919050565b6000602082019050818103600083015261310c81612bf8565b9050919050565b6000602082019050818103600083015261312c81612c3e565b9050919050565b60006020820190506131486000830184612c61565b92915050565b6000613158613169565b905061316482826133f9565b919050565b6000604051905090565b600067ffffffffffffffff82111561318e5761318d613531565b5b61319782613560565b9050602081019050919050565b60008190508160005260206000209050919050565b600081519050919050565b600081519050919050565b600082825260208201905092915050565b600082825260208201905092915050565b600081905092915050565b60006132078261337b565b91506132128361337b565b9250827fffffffffffffffffffffffffffffffffffffffffffffffffffffffffffffffff03821115613247576132466134a4565b5b828201905092915050565b600061325d8261337b565b91506132688361337b565b925082613278576132776134d3565b5b828204905092915050565b600061328e8261337b565b91506132998361337b565b9250817fffffffffffffffffffffffffffffffffffffffffffffffffffffffffffffffff04831182151516156132d2576132d16134a4565b5b828202905092915050565b60006132e88261337b565b91506132f38361337b565b925082821015613306576133056134a4565b5b828203905092915050565b600061331c8261335b565b9050919050565b60008115159050919050565b60007fffffffff0000000000000000000000000000000000000000000000000000000082169050919050565b600073ffffffffffffffffffffffffffffffffffffffff82169050919050565b6000819050919050565b82818337600083830152505050565b60005b838110156133b2578082015181840152602081019050613397565b838111156133c1576000848401525b50505050565b600060028204905060018216806133df57607f821691505b602082108114156133f3576133f2613502565b5b50919050565b61340282613560565b810181811067ffffffffffffffff8211171561342157613420613531565b5b80604052505050565b60006134358261337b565b91507fffffffffffffffffffffffffffffffffffffffffffffffffffffffffffffffff821415613468576134676134a4565b5b600182019050919050565b600061347e8261337b565b91506134898361337b565b925082613499576134986134d3565b5b828206905092915050565b7f4e487b7100000000000000000000000000000000000000000000000000000000600052601160045260246000fd5b7f4e487b7100000000000000000000000000000000000000000000000000000000600052601260045260246000fd5b7f4e487b7100000000000000000000000000000000000000000000000000000000600052602260045260246000fd5b7f4e487b7100000000000000000000000000000000000000000000000000000000600052604160045260246000fd5b6000601f19601f8301169050919050565b7f4649525354574f52440000000000000000000000000000000000000000000000600082015250565b7f4552433732313a207472616e7366657220746f206e6f6e20455243373231526560008201527f63656976657220696d706c656d656e7465720000000000000000000000000000602082015250565b7f4552433732313a207472616e736665722066726f6d20696e636f72726563742060008201527f6f776e6572000000000000000000000000000000000000000000000000000000602082015250565b7f4552433732313a20746f6b656e20616c7265616479206d696e74656400000000600082015250565b7f54484952445f574f524400000000000000000000000000000000000000000000600082015250565b7f4552433732313a207472616e7366657220746f20746865207a65726f2061646460008201527f7265737300000000000000000000000000000000000000000000000000000000602082015250565b7f4552433732313a20617070726f766520746f2063616c6c657200000000000000600082015250565b7f5345434f4e445f574f5244000000000000000000000000000000000000000000600082015250565b7f4552433732313a206f70657261746f7220717565727920666f72206e6f6e657860008201527f697374656e7420746f6b656e0000000000000000000000000000000000000000602082015250565b7f3c2f746578743e3c2f7376673e00000000000000000000000000000000000000600082015250565b7f736f6c646f757421000000000000000000000000000000000000000000000000600082015250565b7f4552433732313a20617070726f76652063616c6c6572206973206e6f74206f7760008201527f6e6572206e6f7220617070726f76656420666f7220616c6c0000000000000000602082015250565b7f4552433732313a2062616c616e636520717565727920666f7220746865207a6560008201527f726f206164647265737300000000000000000000000000000000000000000000602082015250565b7f4552433732313a206f776e657220717565727920666f72206e6f6e657869737460008201527f656e7420746f6b656e0000000000000000000000000000000000000000000000602082015250565b7f45524337323155524953746f726167653a2055524920736574206f66206e6f6e60008201527f6578697374656e7420746f6b656e000000000000000000000000000000000000602082015250565b7f7b226e616d65223a202220000000000000000000000000000000000000000000600082015250565b7f227d000000000000000000000000000000000000000000000000000000000000600082015250565b7f4552433732313a206d696e7420746f20746865207a65726f2061646472657373600082015250565b7f222c2022206465736372697074696f6e223a20226120686966686c792061636360008201527f6c61696d656420636f6c6c656374696f6e206f6620737175617265732e222c2060208201527f22696d616765223a2022646174613a696d6167652f7376672b786d6c3b62617360408201527f6536342c00000000000000000000000000000000000000000000000000000000606082015250565b7f45524337323155524953746f726167653a2055524920717565727920666f722060008201527f6e6f6e6578697374656e7420746f6b656e000000000000000000000000000000602082015250565b7f4552433732313a20617070726f76656420717565727920666f72206e6f6e657860008201527f697374656e7420746f6b656e0000000000000000000000000000000000000000602082015250565b7f4552433732314d657461646174613a2055524920717565727920666f72206e6f60008201527f6e6578697374656e7420746f6b656e0000000000000000000000000000000000602082015250565b7f4552433732313a20617070726f76616c20746f2063757272656e74206f776e6560008201527f7200000000000000000000000000000000000000000000000000000000000000602082015250565b7f646174613a6170706c69636174696f6e2f6a736f6e3b6261736536342c000000600082015250565b7f4552433732313a207472616e736665722063616c6c6572206973206e6f74206f60008201527f776e6572206e6f7220617070726f766564000000000000000000000000000000602082015250565b613bdb81613311565b8114613be657600080fd5b50565b613bf281613323565b8114613bfd57600080fd5b50565b613c098161332f565b8114613c1457600080fd5b50565b613c208161337b565b8114613c2b57600080fd5b5056fe416e204e465420772f204944202573206861732062656564206d696e74656420746f2025734142434445464748494a4b4c4d4e4f505152535455565758595a6162636465666768696a6b6c6d6e6f707172737475767778797a303132333435363738392b2fa264697066735822122023653d7611f74d1d7a71371e3ba11db3cb1e6fa724f313efd58cd8d4784c9cab64736f6c634300080400333c73766720786d6c6e733d27687474703a2f2f7777772e77332e6f72672f323030302f73766727207072657365727665417370656374526174696f3d27784d696e594d696e206d656574272076696577426f783d273020302033353020333530273e3c7374796c653e2e62617365207b2066696c6c3a2077686974653b20666f6e742d66616d696c793a2073657269663b20666f6e742d73697a653a20323470783b207d3c2f7374796c653e3c726563742077696474683d273130302527206865696768743d2731303025272066696c6c3d27626c61636b27202f3e3c7465787420783d273530252720793d273530252720636c6173733d27626173652720646f6d696e616e742d626173656c696e653d276d6964646c652720746578742d616e63686f723d276d6964646c65273e",
  "linkReferences": {},
  "deployedLinkReferences": {}
}